:087000000C944B380C9400388D
:107008000C9400380C9400380C9400380C94003818
:107018000C9400380C9400380C9400380C94003808
:107028000C9400380C9400380C9400380C940038F8
:107038000C9400380C9400380C9400380C940038E8
:107048000C94DD3A0C9400380C942F3B0C940038C7
:107058000C9400380C9400380C9400380C940038C8
:107068001027E80364000A00010000100001100066
:1070780001000000010000000000302E302E30001A
:10708800080003007A700500990382700000F894E4
:10709800EE27EFBBF1E0F5BFF2E0F5BF8DE0A2E02F
:1070A800BB27ED938A95E9F780E098E0A0E0B1E08E
:1070B800ED930197E9F7E8E8F0E785919591009756
:1070C80061F0A591B59105901590BF01F00105906B
:1070D8000D920197E1F7FB01F0CFE0E0EEBBEFEF97
:1070E800EDBFE8E0EEBFC0E0D3E00C947B380E942F
:1070F800803A78940FD0E03029F04CD0F8940E9470
:107108008C3B7894552021F4F894F0E0E0E0099461
:10711800F1CFFFCF332021F4A0910203A73008F468
:107128001AC00E940F3BEF3F91F40E940F3BE535D8
:1071380049F40E940F3B6E2EE7E8E61510F0E1E0F7
:107148003E2E04C0F8940E948C3B789404C0F894B6
:107158000E948C3B7894E1E0E315D1F4E62DF0E051
:107168003197A0910203B0E0AE17BF078CF0EFE9AA
:10717800F3E0FA93EA93E3E0F3E0FA93EA93E62D77
:10718800F0E03296DF010E94653B3324E1E0089588
:10719800E0E008951A93E091A1031E2FE1EAF3E0DD
:1071A800FA93EA93A12F07D0E03011F01CD001C068
:1071B80029D00C942D3BAA931A930A9310E000E06F
:1071C80000E0EA810E1750F4E02FF0E0AB81BC81BB
:1071D800AE0FBF1FEC911E0F0F5FF3CFE12F198188
:1071E8000881259608951A9312E0EDB7FEB73197F6
:1071F800FA93EA932F931F930E94943B1F912F9128
:107208000C942D3B1A93E091A403F0E0E130A0E048
:10721800FA0711F430D01EC0E430A0E0FA0711F4E8
:107228001BD018C0E530A0E0FA0711F4BCD012C09A
:10723800E630A0E0FA0711F4DED00CC013E0EDB799
:10724800FEB73197FA93EA932F931F930E94943BCA
:107258001F912F910C942D3B1A9310E0EDB7FEB7B8
:107268003197FA93EA932F931F930E94943B1F91AF
:107278002F910C942D3B6197E0E3EB87EEE2EC87CE
:10728800E0E3ED87EEE2EE87E0E3EF87E0E0E88B0E
:107298000E94A23BE0E04E99E1E03E2FE0E04F99EA
:1072A800E1E02E2FE0E0EC83E22FEE0FE30FEF5F3B
:1072B8004E2EFE013596FA93EA93FE017196FA93E3
:1072C800EA93A5E00E94773BE42DE05DED83FE01A3
:1072D8003A96FA93EA93E9E9F3E0FA93EA93A5E098
:1072E8000E94773BFE013496FA93EA93ABE0B0E054
:1072F80004D00E94A73B65960895BA93AA930E946A
:10730800A23B00E0EFEFF5E5E0933B04F0933C048B
:10731800EC81EB5FE0933D04E091A303E0933F042D
:10732800E091A403E0934004E2E0E0933E04E1E44A
:10733800F4E0FA93EA93E885F985FA93EA93A88545
:10734800B9850E94653B10E0E0913D04F0E031977B
:10735800A12FB0E0AE17BF074CF4ADE3B4E0EE27C1
:10736800A10FBE1FEC910E0F1F5FEECF01952BE30F
:1073780034E010E0E0913D04F0E03296A12FB0E057
:10738800AE17BF074CF4D901EE27A10FBE1FAC9171
:107398000E94473B1F5FEECFA02F0E94473B0E94F1
:1073A800A73B289608951A9310E0E7EDF4E0FA93C6
:1073B800EA93E5EAF3E0FA93EA93A1E8B0E00E94E1
:1073C800653BF894A091D7043BD0E8EDF4E0FA933C
:1073D800EA93A091D7040E94463A7894EDB7FEB795
:1073E8003197FA93EA932F931F930E94943B1F912E
:1073F8002F910C942D3B1A9310E0EDB7FEB73197FF
:10740800FA93EA932F931F930E94943B1F912F9115
:10741800AAE0B0E00E94983B55240C942D3BAA9317
:10742800E7B7E0FDFDCF1A800980F0E0E88141E090
:1074380047BFE895E0E0E983EA83E8832396089567
:10744800AA93E7B7E0FDFDCFF881E0E0F695E79570
:107458004F9343E047BF4F91E895E0E0E8830C94F1
:10746800633BAA93E7B7E0FDFDCFF881E0E0F6952E
:10747800E7954F9345E047BF4F91E895E0E0E883F3
:107488000C94633BAA930E94A23B00E010E020E02A
:1074980030E0AC81D5DFA5E0B0E00E94983B203811
:1074A800E0E03E07F8F4F9013196AD81BE81AE0FF8
:1074B800BF1FEC91FE2FE0E00F01F901AD81BE8105
:1074C800AE0FBF1FEC91F0E0E00DF11D8F011A9394
:1074D8000A93A22F0E94133A8BE08A95F1F72E5F48
:1074E8003F4FDDCFAC81BDDFA5E0B0E00E94983B07
:1074F8000E94A73B27960895E0E8E0936100E0E04A
:10750800E0936100E2E0E4B9E0E0E5B9E7B9E8B9A1
:10751800EAB9EBB9E4BDE5BDE6BDE7BDE8BDE2E823
:10752800E0938000E9E1E0938100E0E0E0938500EA
:10753800E0938400E0938700E0938600E09389005D
:10754800E0938800E0938B00E0938A00E093B60014
:10755800E093B000E093B100E093B200E093B30091
:10756800E093B400E0936E00E0936F00E093700046
:10757800E0936900EDBBE0936800E2E0E093C000AF
:10758800E8EDE093C100E6E0E093C200E0E0E093BC
:10759800C500E2E2E093C400E0E8E0BFE0E0E09389
:1075A8007B00E0937F00E0937A00ECBDE093BC00A1
:1075B8000895AA93EA93FA93EFB7EA931A930A9372
:1075C8001091C0000091C600E12FEC71E1F4E09148
:1075D8000003EF5FE0930003E150F0E0ED5FFC4F44
:1075E8000083A0910003A63919F4E0E0E0930003BA
:1075F800A0910203AF5FA0930203A63921F4E0E053
:10760800E0930203F09A09911991E991EFBFF9917A
:10761800E991A99118951A93E0910203E030E1F3FA
:10762800E0910103EF5FE0930103E150F0E0ED5FCB
:10763800FC4F1081A0910103A63919F4E0E0E09312
:107648000103F894E0910203E150E0930203789477
:10765800E12F19910895EA93FA93EFB7EA93AA20D4
:1076680069F0AA94E72D7394F0E0E85AFA4FE081A4
:10767800E093C600E8E0E71509F47724E991EFBF45
:10768800F991E9911895AA93E8E0EA15E9F3F894D5
:10769800AA2021F4E091C000E07269F4E82D8394F7
:1076A800F0E0E85AFA4FA881A083E8E0E81509F469
:1076B8008824A39403C0E881E093C60078942196B7
:1076C8000895BA93AA9399818881009641F0BD8163
:1076D800AC81FB81EA8161916D930197E1F7FD81AE
:1076E800EC8126960895AA937991E991F991A99147
:1076F800B991CD01772351F07A9561916D93662305
:10770800C9F7772319F07A956D93FBCFFC0108959B
:10771800E0E0E0930103E0930003E093020308959F
:10772800A1E0B0E00C948139109639F080EA9FE02E
:107738000197F1F7A8951197C9F708953A932A93F5
:107748001A930A9308953B812A8119810881089523
:00000001FF
