:100000000C944A000C9400000C9400000C94000026
:100010000C9400000C9400000C9400000C94000060
:100020000C9400000C9400000C9400000C94000050
:100030000C9400000C9400000C9400000C94000040
:100040000C9400000C9400000C949A020C94000094
:100050000C94EC020C9400000C9400000C94000032
:100060000C9400000C9400001027E80364000A00C0
:10007000010000100001100001000000000000005D
:10008000312E302E3100060003007A00050099035E
:1000900080000000F894EE27EFBBF1E0F5BFE5BF6C
:1000A0008DE0A2E0BB27ED938A95E9F780E098E028
:1000B000A0E0B1E0ED930197E9F7E6E8F0E0859183
:1000C0009591009761F0A591B59105901590BF01AC
:1000D000F00105900D920197E1F7FB01F0CFE0E010
:1000E000EEBBEFEFEDBFE8E0EEBFC0E0D3E00C9475
:1000F00079000E943D027894A0EDB7E00E945C0375
:1001000009D0E03029F046D0F8940E944903789451
:10011000F7CFFFCF332021F4A0910203A73008F4DA
:100120001AC00E94CC02EF3F91F40E94CC02E53548
:1001300049F40E94CC026E2EE7E8E61510F0E1E0EB
:100140003E2E04C0F8940E944903789404C0F894A9
:100150000E9449037894E1E0E315D1F4E62DF0E044
:100160003197A0910203B0E0AE17BF078CF0EFE922
:10017000F3E0FA93EA93E3E0F3E0FA93EA93E62DEF
:10018000F0E03296DF010E9422033324E1E008957B
:10019000E0E008951A93E091A1031E2FE1EAF3E055
:1001A000FA93EA93A12F07D0E03011F01CD001C0E0
:1001B00029D00C94EA02AA931A930A9310E000E063
:1001C00000E0EA810E1750F4E02FF0E0AB81BC8133
:1001D000AE0FBF1FEC911E0F0F5FF3CFE12F198100
:1001E0000881259608951A9312E0EDB7FEB731976E
:1001F000FA93EA932F931F930E9451031F912F911B
:100200000C94EA021A93E091A403F0E0E130A0E03C
:10021000FA0711F46BD01EC0E230A0E0FA0711F427
:100220001BD018C0E330A0E0FA0711F4A1D012C02F
:10023000E430A0E0FA0711F442D00CC013E0EDB7AF
:10024000FEB73197FA93EA932F931F930E945103BD
:100250001F912F910C94EA02EF97EF972497EDED01
:10026000F4E00E945503A1E8B0E00E942203E0E020
:10027000E883E091DD04E983A981A13840F0E1E061
:10028000E883FE01FA93EA93A1E0B0E013C0FE0117
:100290003296FA93EA93EEEDF4E0FA93EA93AD81A5
:1002A000BB270E942203FE01FA93EA93EB81F0E060
:1002B0003296DF018CD0EF96EF96249608951A932C
:1002C00010E0EDB7FEB73197FA93EA932F931F939F
:1002D0000E9451031F912F91AAE0B0E00E945C039D
:1002E000F894F8E3E0E009940C94EA026197E0E303
:1002F000EB87EEE2EC87E0E3ED87EEE2EE87E0E30A
:10030000EF87E0E0E88B0E946603E0E04E99E1E0D1
:100310003E2FE0E04F99E1E02E2FE0E0EC83E22F6A
:10032000EE0FE30FEF5F4E2EFE013596FA93EA9340
:10033000FE017196FA93EA93A5E00E943403E42D3E
:10034000E05DED83FE013A96FA93EA93E9E9F3E082
:10035000FA93EA93A5E00E943403FE013496FA93DF
:10036000EA93ABE0B0E033D00E946B03659608954A
:100370001A9310E0E7EDF4E00E945503A6E0B0E028
:100380000E942203E091D704E0938000E091D8041A
:10039000E0938100E091D904E0938700E091DA04D2
:1003A000E0938600E091DB04E0938900E091DC04B7
:1003B000E0938800EDB7FEB73197FA93EA932F9355
:1003C0001F930E9451031F912F910C94EA02BA933C
:1003D000AA930E94660300E0EFEFF5E5E0933B048B
:1003E000F0933C04EC81EB5FE0933D04E091A303C8
:1003F000E0933F04E091A403E0934004E2E0E09343
:100400003E04E1E4F4E0FA93EA93E885F985FA938F
:10041000EA93A885B9850E94220310E0E0913D048B
:10042000F0E03197A12FB0E0AE17BF074CF4ADE379
:10043000B4E0EE27A10FBE1FEC910E0F1F5FEECFB1
:1004400001952BE334E010E0E0913D04F0E03296BA
:10045000A12FB0E0AE17BF074CF4D901EE27A10FD2
:10046000BE1FAC910E9404031F5FEECFA02F0E941D
:1004700004030E946B0328960895E0E8E09361006E
:10048000E0E0E0936100E2E2E4B9E0E0E5B9E7B979
:10049000E8B9EAB9EBB9E4BDE5BDE6BDE7BDE8BD45
:1004A000E2E8E0938000E9E1E0938100E0E0E0939E
:1004B0008500E0938400E0938700E0938600E0935A
:1004C0008900E0938800E0938B00E0938A00E0933A
:1004D000B600E093B000E093B100E093B200E09387
:1004E000B300E093B400E0936E00E0936F00E093FC
:1004F0007000E0936900EDBBE0936800E2E0E093F8
:10050000C000E8EDE093C100E6E0E093C200E0E067
:10051000E093C500E2E2E093C400E0E8E0BFE0E081
:10052000E0937B00E0937F00E0937A00ECBDE093E2
:10053000BC000895AA93EA93FA93EFB7EA931A934B
:100540000A931091C0000091C600E12FEC71E1F414
:10055000E0910003EF5FE0930003E150F0E0ED5F16
:10056000FC4F0083A0910003A63919F4E0E0E0936A
:100570000003A0910203AF5FA0930203A63921F408
:10058000E0E0E0930203F09A09911991E991EFBF3D
:10059000F991E991A99118951A93E0910203E0303D
:1005A000E1F3E0910103EF5FE0930103E150F0E03C
:1005B000ED5FFC4F1081A0910103A63919F4E0E032
:1005C000E0930103F894E0910203E150E093020309
:1005D0007894E12F19910895EA93FA93EFB7EA938B
:1005E000772069F07A94E82D8394F0E0E25AFA4F8C
:1005F000E081E093C600E8E0E81509F48824E99179
:10060000EFBFF991E9911895AA93E8E0E715E9F3AE
:10061000F894772021F4E091C000E07269F4E52DB0
:100620005394F0E0E25AFA4FA881A083E8E0E51580
:1006300009F45524739403C0E881E093C6007894CC
:1006400021960895BA93AA9399818881009641F0E2
:10065000BD81AC81FB81EA8161916D930197E1F7E6
:10066000FD81EC8126960895AA937991E991F991FB
:10067000A991B991CD01772351F07A9561916D934C
:100680006623C9F7772319F07A956D93FBCFFC01A8
:100690000895E0E0E0930103E0930003E093020398
:1006A0000895A1E0B0E00C94E701FA93EA93E5EA3B
:1006B000F3E0FA93EA930895109639F080EA9FE008
:1006C0000197F1F7A8951197C9F708953A932A93DE
:1006D0001A930A9308953B812A811981088108950C
:00000001FF
