:0C0000000C944A000C9400000C940000CA
:10000C000C9400000C9400000C9400000C94000064
:10001C000C9400000C9400000C9400000C94000054
:10002C000C9400000C9400000C9400000C94000044
:10003C000C9400000C9400000C9400000C94110221
:10004C000C9400000C9463020C9400000C940000BF
:10005C000C9400000C9400000C9400001027E80392
:10006C0064000A00010000100001100001000000F3
:10007C0000000000312E302E3000060003007A0004
:10008C000500990380000000F894EE27EFBBF1E027
:10009C00F5BFE5BF8DE0A2E0BB27ED938A95E9F7AC
:1000AC0080E098E0A0E0B1E0ED930197E9F7E6E895
:1000BC00F0E085919591009761F0A591B59105902F
:1000CC001590BF01F00105900D920197E1F7FB012E
:1000DC00F0CFE0E0EEBBEFEFEDBFE8E0EEBFC0E04D
:1000EC00D3E00C9479000E94B401789409D0E030EC
:1000FC0029F046D0F8940E94C0027894F7CFFFCF35
:10010C00332021F4A0910203A73008F41AC00E94F6
:10011C004302EF3F91F40E944302E53549F40E94FB
:10012C0043026E2EE7E8E61510F0E1E03E2E04C027
:10013C00F8940E94C002789404C0F8940E94C00203
:10014C007894E1E0E315D1F4E62DF0E03197A0913D
:10015C000203B0E0AE17BF078CF0EFE9F3E0FA93BF
:10016C00EA93E3E0F3E0FA93EA93E62DF0E03296BB
:10017C00DF010E9499023324E1E00895E0E0089544
:10018C001A93E091A1031E2FE1EAF3E0FA93EA93AC
:10019C00A12F05D0E03009F41AD00C946102AA9377
:1001AC001A930A9310E000E000E0EA810E1750F475
:1001BC00E02FF0E0AB81BC81AE0FBF1FEC911E0FA6
:1001CC000F5FF3CFE12F1981088125960895E091F7
:1001DC00A403F0E0E130A0E0FA0711F407D005C069
:1001EC00E330A0E0FA0709F441D008956197E0E309
:1001FC00EB87EEE2EC87E0E3ED87EEE2EE87E0E3FF
:10020C00EF87E0E0E88B0E94C80230E0E0E04E9916
:10021C00E1E02E2FE0E04F99E1E0EE83EE0FE20FEC
:10022C00EF5F4E2EFE013796FA93EA93FE0173961A
:10023C00FA93EA93A5E00E94AB02E42DE05DEF8314
:10024C00FE013C96FA93EA93E9E9F3E0FA93EA9318
:10025C00A5E00E94AB02FE013796FA93EA93AAE05E
:10026C00B0E029D00E94CF0267960895EBEAF4E043
:10027C00FA93EA93E5EAF3E0FA93EA93A6E0B0E0A6
:10028C000E949902E091AB04E0938000E091AC04F1
:10029C00E0938100E091AD04E0938700E091AE041F
:1002AC00E0938600E091AF04E0938900E091B00404
:1002BC00E09388000895BA93AA930E94CA0200E0C2
:1002CC00EFEFF5E5E0932504F0932604EC81EB5F6A
:1002DC00E0932704E091A303E0932904E091A403A5
:1002EC00E0932A04E2E0E0932804EBE2F4E0FA93D2
:1002FC00EA93E885F985FA93EA93A885B9850E9473
:10030C00990210E0E0912704F0E03197A12FB0E0C2
:10031C00AE17BF074CF4A7E2B4E0EE27A10FBE1F47
:10032C00EC910E0F1F5FEECF019525E234E010E04B
:10033C00E0912704F0E03296A12FB0E0AE17BF0792
:10034C004CF4D901EE27A10FBE1FAC910E947B0289
:10035C001F5FEECF0E94D10228960895E0E8E0934B
:10036C006100E0E0E0936100E2E0E4B9E0E0E5B9CF
:10037C00E7B9E8B9EAB9EBB9E4BDE5BDE6BDE7BD5F
:10038C00E8BDE2E8E0938000E9E1E0938100E0E081
:10039C00E0938500E0938400E0938700E09386006F
:1003AC00E0938900E0938800E0938B00E0938A004F
:1003BC00E093B600E093B000E093B100E093B2009C
:1003CC00E093B300E093B400E0936E00E0936F0011
:1003DC00E0937000E0936900EDBBE0936800E2E00D
:1003EC00E093C000E8EDE093C100E6E0E093C200CA
:1003FC00E0E0E093C500E2E2E093C400E0E8E0BF97
:10040C00E0E0E0937B00E0937F00E0937A00ECBDAA
:10041C00E093BC000895AA93EA93FA93EFB7EA939A
:10042C001A930A931091C0000091C600E12FEC7151
:10043C00E1F4E0910003EF5FE0930003E150F0E0A2
:10044C00ED5FFC4F0083A0910003A63919F4E0E0A6
:10045C00E0930003A0910203AF5FA0930203A639BF
:10046C0021F4E0E0E0930203F09A09911991E991EB
:10047C00EFBFF991E991A99118951A93E0910203B4
:10048C00E030E1F3E0910103EF5FE0930103E15011
:10049C00F0E0ED5FFC4F1081A0910103A63919F437
:1004AC00E0E0E0930103F894E0910203E150E09363
:1004BC0002037894E12F19910895EA93FA93EFB718
:1004CC00EA93772069F07A94E82D8394F0E0EF5466
:1004DC00FB4FE081E093C600E8E0E81509F48824BE
:1004EC00E991EFBFF991E9911895AA93E8E0E71526
:1004FC00E9F3F894772021F4E091C000E07269F4FC
:10050C00E52D5394F0E0EF54FB4FA881A083E8E075
:10051C00E51509F45524739403C0E881E093C600F3
:10052C00789421960895BA93AA939981888100961C
:10053C0041F0BD81AC81FB81EA8161916D930197A2
:10054C00E1F7FD81EC8126960895AA937991E991C2
:10055C00F991A991B991CD01772351F07A956191D7
:10056C006D936623C9F7772319F07A956D93FBCFBA
:10057C00FC010895E0E0E0930103E0930003E093B5
:10058C00020308955A934A933A932A931A930A931F
:10059C0008955D814C813B812A81198108810895E0
:00000001FF
